{
  "_format": "hh-sol-artifact-1",
  "contractName": "Coin",
  "sourceName": "src/backend/contracts/Coin.sol",
  "abi": [
    {
      "inputs": [
        {
          "internalType": "string",
          "name": "_name",
          "type": "string"
        }
      ],
      "stateMutability": "nonpayable",
      "type": "constructor"
    },
    {
      "anonymous": false,
      "inputs": [
        {
          "indexed": false,
          "internalType": "address",
          "name": "from",
          "type": "address"
        },
        {
          "indexed": false,
          "internalType": "address",
          "name": "to",
          "type": "address"
        },
        {
          "indexed": false,
          "internalType": "uint256",
          "name": "amount",
          "type": "uint256"
        }
      ],
      "name": "Sent",
      "type": "event"
    },
    {
      "inputs": [
        {
          "internalType": "address",
          "name": "",
          "type": "address"
        }
      ],
      "name": "balances",
      "outputs": [
        {
          "internalType": "uint256",
          "name": "",
          "type": "uint256"
        }
      ],
      "stateMutability": "view",
      "type": "function"
    },
    {
      "inputs": [
        {
          "internalType": "string",
          "name": "newName",
          "type": "string"
        }
      ],
      "name": "changeName",
      "outputs": [],
      "stateMutability": "nonpayable",
      "type": "function"
    },
    {
      "inputs": [
        {
          "internalType": "address",
          "name": "receiver",
          "type": "address"
        },
        {
          "internalType": "uint256",
          "name": "amount",
          "type": "uint256"
        }
      ],
      "name": "mint",
      "outputs": [],
      "stateMutability": "nonpayable",
      "type": "function"
    },
    {
      "inputs": [],
      "name": "name",
      "outputs": [
        {
          "internalType": "string",
          "name": "",
          "type": "string"
        }
      ],
      "stateMutability": "view",
      "type": "function"
    },
    {
      "inputs": [],
      "name": "owner",
      "outputs": [
        {
          "internalType": "address",
          "name": "",
          "type": "address"
        }
      ],
      "stateMutability": "view",
      "type": "function"
    },
    {
      "inputs": [
        {
          "internalType": "address",
          "name": "receiver",
          "type": "address"
        },
        {
          "internalType": "uint256",
          "name": "amount",
          "type": "uint256"
        }
      ],
      "name": "send",
      "outputs": [],
      "stateMutability": "nonpayable",
      "type": "function"
    }
  ],
  "bytecode": "0x60806040523480156200001157600080fd5b5060405162001043380380620010438339818101604052810190620000379190620001fa565b336000806101000a81548173ffffffffffffffffffffffffffffffffffffffff021916908373ffffffffffffffffffffffffffffffffffffffff16021790555033600160006101000a81548173ffffffffffffffffffffffffffffffffffffffff021916908373ffffffffffffffffffffffffffffffffffffffff1602179055508060029080519060200190620000d0929190620000d8565b5050620003af565b828054620000e690620002d4565b90600052602060002090601f0160209004810192826200010a576000855562000156565b82601f106200012557805160ff191683800117855562000156565b8280016001018555821562000156579182015b828111156200015557825182559160200191906001019062000138565b5b50905062000165919062000169565b5090565b5b80821115620001845760008160009055506001016200016a565b5090565b60006200019f620001998462000268565b6200023f565b905082815260208101848484011115620001b857600080fd5b620001c58482856200029e565b509392505050565b600082601f830112620001df57600080fd5b8151620001f184826020860162000188565b91505092915050565b6000602082840312156200020d57600080fd5b600082015167ffffffffffffffff8111156200022857600080fd5b6200023684828501620001cd565b91505092915050565b60006200024b6200025e565b90506200025982826200030a565b919050565b6000604051905090565b600067ffffffffffffffff8211156200028657620002856200036f565b5b62000291826200039e565b9050602081019050919050565b60005b83811015620002be578082015181840152602081019050620002a1565b83811115620002ce576000848401525b50505050565b60006002820490506001821680620002ed57607f821691505b6020821081141562000304576200030362000340565b5b50919050565b62000315826200039e565b810181811067ffffffffffffffff821117156200033757620003366200036f565b5b80604052505050565b7f4e487b7100000000000000000000000000000000000000000000000000000000600052602260045260246000fd5b7f4e487b7100000000000000000000000000000000000000000000000000000000600052604160045260246000fd5b6000601f19601f8301169050919050565b610c8480620003bf6000396000f3fe608060405234801561001057600080fd5b50600436106100625760003560e01c806306fdde031461006757806327e235e31461008557806340c10f19146100b55780635353a2d8146100d15780638da5cb5b146100ed578063d0679d341461010b575b600080fd5b61006f610127565b60405161007c9190610844565b60405180910390f35b61009f600480360381019061009a9190610669565b6101b5565b6040516100ac91906108e6565b60405180910390f35b6100cf60048036038101906100ca9190610692565b6101cd565b005b6100eb60048036038101906100e691906106ce565b6102f9565b005b6100f56103a1565b60405161010291906107f2565b60405180910390f35b61012560048036038101906101209190610692565b6103c7565b005b6002805461013490610a7b565b80601f016020809104026020016040519081016040528092919081815260200182805461016090610a7b565b80156101ad5780601f10610182576101008083540402835291602001916101ad565b820191906000526020600020905b81548152906001019060200180831161019057829003601f168201915b505050505081565b60036020528060005260406000206000915090505481565b60008054906101000a900473ffffffffffffffffffffffffffffffffffffffff1673ffffffffffffffffffffffffffffffffffffffff163373ffffffffffffffffffffffffffffffffffffffff161461025b576040517f08c379a000000000000000000000000000000000000000000000000000000000815260040161025290610886565b60405180910390fd5b612710811061029f576040517f08c379a0000000000000000000000000000000000000000000000000000000008152600401610296906108c6565b60405180910390fd5b80600360008473ffffffffffffffffffffffffffffffffffffffff1673ffffffffffffffffffffffffffffffffffffffff16815260200190815260200160002060008282546102ee9190610973565b925050819055505050565b60008054906101000a900473ffffffffffffffffffffffffffffffffffffffff1673ffffffffffffffffffffffffffffffffffffffff163373ffffffffffffffffffffffffffffffffffffffff1614610387576040517f08c379a000000000000000000000000000000000000000000000000000000000815260040161037e90610866565b60405180910390fd5b806002908051906020019061039d929190610534565b5050565b600160009054906101000a900473ffffffffffffffffffffffffffffffffffffffff1681565b600360003373ffffffffffffffffffffffffffffffffffffffff1673ffffffffffffffffffffffffffffffffffffffff16815260200190815260200160002054811115610449576040517f08c379a0000000000000000000000000000000000000000000000000000000008152600401610440906108a6565b60405180910390fd5b80600360003373ffffffffffffffffffffffffffffffffffffffff1673ffffffffffffffffffffffffffffffffffffffff168152602001908152602001600020600082825461049891906109c9565b9250508190555080600360008473ffffffffffffffffffffffffffffffffffffffff1673ffffffffffffffffffffffffffffffffffffffff16815260200190815260200160002060008282546104ee9190610973565b925050819055507f3990db2d31862302a685e8086b5755072a6e2b5b780af1ee81ece35ee3cd33453383836040516105289392919061080d565b60405180910390a15050565b82805461054090610a7b565b90600052602060002090601f01602090048101928261056257600085556105a9565b82601f1061057b57805160ff19168380011785556105a9565b828001600101855582156105a9579182015b828111156105a857825182559160200191906001019061058d565b5b5090506105b691906105ba565b5090565b5b808211156105d35760008160009055506001016105bb565b5090565b60006105ea6105e584610926565b610901565b90508281526020810184848401111561060257600080fd5b61060d848285610a39565b509392505050565b60008135905061062481610c20565b92915050565b600082601f83011261063b57600080fd5b813561064b8482602086016105d7565b91505092915050565b60008135905061066381610c37565b92915050565b60006020828403121561067b57600080fd5b600061068984828501610615565b91505092915050565b600080604083850312156106a557600080fd5b60006106b385828601610615565b92505060206106c485828601610654565b9150509250929050565b6000602082840312156106e057600080fd5b600082013567ffffffffffffffff8111156106fa57600080fd5b6107068482850161062a565b91505092915050565b610718816109fd565b82525050565b600061072982610957565b6107338185610962565b9350610743818560208601610a48565b61074c81610b6b565b840191505092915050565b6000610764602083610962565b915061076f82610b7c565b602082019050919050565b6000610787601483610962565b915061079282610ba5565b602082019050919050565b60006107aa601583610962565b91506107b582610bce565b602082019050919050565b60006107cd601883610962565b91506107d882610bf7565b602082019050919050565b6107ec81610a2f565b82525050565b6000602082019050610807600083018461070f565b92915050565b6000606082019050610822600083018661070f565b61082f602083018561070f565b61083c60408301846107e3565b949350505050565b6000602082019050818103600083015261085e818461071e565b905092915050565b6000602082019050818103600083015261087f81610757565b9050919050565b6000602082019050818103600083015261089f8161077a565b9050919050565b600060208201905081810360008301526108bf8161079d565b9050919050565b600060208201905081810360008301526108df816107c0565b9050919050565b60006020820190506108fb60008301846107e3565b92915050565b600061090b61091c565b90506109178282610aad565b919050565b6000604051905090565b600067ffffffffffffffff82111561094157610940610b3c565b5b61094a82610b6b565b9050602081019050919050565b600081519050919050565b600082825260208201905092915050565b600061097e82610a2f565b915061098983610a2f565b9250827fffffffffffffffffffffffffffffffffffffffffffffffffffffffffffffffff038211156109be576109bd610ade565b5b828201905092915050565b60006109d482610a2f565b91506109df83610a2f565b9250828210156109f2576109f1610ade565b5b828203905092915050565b6000610a0882610a0f565b9050919050565b600073ffffffffffffffffffffffffffffffffffffffff82169050919050565b6000819050919050565b82818337600083830152505050565b60005b83811015610a66578082015181840152602081019050610a4b565b83811115610a75576000848401525b50505050565b60006002820490506001821680610a9357607f821691505b60208210811415610aa757610aa6610b0d565b5b50919050565b610ab682610b6b565b810181811067ffffffffffffffff82111715610ad557610ad4610b3c565b5b80604052505050565b7f4e487b7100000000000000000000000000000000000000000000000000000000600052601160045260246000fd5b7f4e487b7100000000000000000000000000000000000000000000000000000000600052602260045260246000fd5b7f4e487b7100000000000000000000000000000000000000000000000000000000600052604160045260246000fd5b6000601f19601f8301169050919050565b7f4f6e6c79206f776e6572732063616e206368616e676520636f696e206e616d65600082015250565b7f4f6e6c79206f776e6572732063616e206d696e74000000000000000000000000600082015250565b7f496e73756666696369656e742062616c616e63652e0000000000000000000000600082015250565b7f4f6e6c79206e756d626572732062656c6f772031303030310000000000000000600082015250565b610c29816109fd565b8114610c3457600080fd5b50565b610c4081610a2f565b8114610c4b57600080fd5b5056fea2646970667358221220225715012422e011c552825ea6df978bc4fdae55911b652cbd7c96b7d4bdc11f64736f6c63430008040033",
  "linkReferences": {},
  "deployedLinkReferences": {}
}