{
  "_format": "hh-sol-artifact-1",
  "contractName": "Election",
  "sourceName": "src/backend/contracts/Election.sol",
  "abi": [
    {
      "inputs": [
        {
          "internalType": "string",
          "name": "_name",
          "type": "string"
        }
      ],
      "stateMutability": "nonpayable",
      "type": "constructor"
    },
    {
      "anonymous": false,
      "inputs": [
        {
          "indexed": true,
          "internalType": "uint256",
          "name": "_candidateId",
          "type": "uint256"
        }
      ],
      "name": "votedEvent",
      "type": "event"
    },
    {
      "inputs": [
        {
          "internalType": "uint256",
          "name": "",
          "type": "uint256"
        }
      ],
      "name": "candidates",
      "outputs": [
        {
          "internalType": "uint256",
          "name": "id",
          "type": "uint256"
        },
        {
          "internalType": "string",
          "name": "name",
          "type": "string"
        },
        {
          "internalType": "uint256",
          "name": "voteCount",
          "type": "uint256"
        }
      ],
      "stateMutability": "view",
      "type": "function"
    },
    {
      "inputs": [],
      "name": "candidatesCount",
      "outputs": [
        {
          "internalType": "uint256",
          "name": "",
          "type": "uint256"
        }
      ],
      "stateMutability": "view",
      "type": "function"
    },
    {
      "inputs": [],
      "name": "name",
      "outputs": [
        {
          "internalType": "string",
          "name": "",
          "type": "string"
        }
      ],
      "stateMutability": "view",
      "type": "function"
    },
    {
      "inputs": [],
      "name": "owner",
      "outputs": [
        {
          "internalType": "address",
          "name": "",
          "type": "address"
        }
      ],
      "stateMutability": "view",
      "type": "function"
    },
    {
      "inputs": [
        {
          "internalType": "string",
          "name": "_name",
          "type": "string"
        }
      ],
      "name": "storeCandidate",
      "outputs": [],
      "stateMutability": "nonpayable",
      "type": "function"
    },
    {
      "inputs": [
        {
          "internalType": "uint256",
          "name": "_candidateId",
          "type": "uint256"
        }
      ],
      "name": "vote",
      "outputs": [],
      "stateMutability": "nonpayable",
      "type": "function"
    },
    {
      "inputs": [
        {
          "internalType": "address",
          "name": "",
          "type": "address"
        }
      ],
      "name": "voters",
      "outputs": [
        {
          "internalType": "bool",
          "name": "",
          "type": "bool"
        }
      ],
      "stateMutability": "view",
      "type": "function"
    },
    {
      "inputs": [],
      "name": "votersCount",
      "outputs": [
        {
          "internalType": "uint256",
          "name": "",
          "type": "uint256"
        }
      ],
      "stateMutability": "view",
      "type": "function"
    }
  ],
  "bytecode": "0x60806040523480156200001157600080fd5b5060405162001034380380620010348339818101604052810190620000379190620001b9565b336000806101000a81548173ffffffffffffffffffffffffffffffffffffffff021916908373ffffffffffffffffffffffffffffffffffffffff16021790555080600190805190602001906200008f92919062000097565b50506200036e565b828054620000a59062000293565b90600052602060002090601f016020900481019282620000c9576000855562000115565b82601f10620000e457805160ff191683800117855562000115565b8280016001018555821562000115579182015b8281111562000114578251825591602001919060010190620000f7565b5b50905062000124919062000128565b5090565b5b808211156200014357600081600090555060010162000129565b5090565b60006200015e620001588462000227565b620001fe565b9050828152602081018484840111156200017757600080fd5b620001848482856200025d565b509392505050565b600082601f8301126200019e57600080fd5b8151620001b084826020860162000147565b91505092915050565b600060208284031215620001cc57600080fd5b600082015167ffffffffffffffff811115620001e757600080fd5b620001f5848285016200018c565b91505092915050565b60006200020a6200021d565b9050620002188282620002c9565b919050565b6000604051905090565b600067ffffffffffffffff8211156200024557620002446200032e565b5b62000250826200035d565b9050602081019050919050565b60005b838110156200027d57808201518184015260208101905062000260565b838111156200028d576000848401525b50505050565b60006002820490506001821680620002ac57607f821691505b60208210811415620002c357620002c2620002ff565b5b50919050565b620002d4826200035d565b810181811067ffffffffffffffff82111715620002f657620002f56200032e565b5b80604052505050565b7f4e487b7100000000000000000000000000000000000000000000000000000000600052602260045260246000fd5b7f4e487b7100000000000000000000000000000000000000000000000000000000600052604160045260246000fd5b6000601f19601f8301169050919050565b610cb6806200037e6000396000f3fe608060405234801561001057600080fd5b50600436106100885760003560e01c80633ede9b671161005b5780633ede9b67146101175780638da5cb5b1461013357806398c0793814610151578063a3ec138d1461016f57610088565b80630121b93f1461008d57806306fdde03146100a95780632d35a8a2146100c75780633477ee2e146100e5575b600080fd5b6100a760048036038101906100a29190610788565b61019f565b005b6100b1610349565b6040516100be91906108b6565b60405180910390f35b6100cf6103d7565b6040516100dc9190610938565b60405180910390f35b6100ff60048036038101906100fa9190610788565b6103dd565b60405161010e93929190610953565b60405180910390f35b610131600480360381019061012c9190610747565b61048f565b005b61013b61059f565b6040516101489190610880565b60405180910390f35b6101596105c3565b6040516101669190610938565b60405180910390f35b6101896004803603810190610184919061071e565b6105c9565b604051610196919061089b565b60405180910390f35b600260003373ffffffffffffffffffffffffffffffffffffffff1673ffffffffffffffffffffffffffffffffffffffff16815260200190815260200160002060009054906101000a900460ff161561022c576040517f08c379a0000000000000000000000000000000000000000000000000000000008152600401610223906108f8565b60405180910390fd5b60008111801561023e57506005548111155b61027d576040517f08c379a0000000000000000000000000000000000000000000000000000000008152600401610274906108d8565b60405180910390fd5b6001600260003373ffffffffffffffffffffffffffffffffffffffff1673ffffffffffffffffffffffffffffffffffffffff16815260200190815260200160002060006101000a81548160ff0219169083151502179055506004600082815260200190815260200160002060020160008154809291906102fc90610af0565b91905055506003600081548092919061031490610af0565b9190505550807ffff3c900d938d21d0990d786e819f29b8d05c1ef587b462b939609625b684b1660405160405180910390a250565b6001805461035690610a8d565b80601f016020809104026020016040519081016040528092919081815260200182805461038290610a8d565b80156103cf5780601f106103a4576101008083540402835291602001916103cf565b820191906000526020600020905b8154815290600101906020018083116103b257829003601f168201915b505050505081565b60055481565b600460205280600052604060002060009150905080600001549080600101805461040690610a8d565b80601f016020809104026020016040519081016040528092919081815260200182805461043290610a8d565b801561047f5780601f106104545761010080835404028352916020019161047f565b820191906000526020600020905b81548152906001019060200180831161046257829003601f168201915b5050505050908060020154905083565b60008054906101000a900473ffffffffffffffffffffffffffffffffffffffff1673ffffffffffffffffffffffffffffffffffffffff163373ffffffffffffffffffffffffffffffffffffffff161461051d576040517f08c379a000000000000000000000000000000000000000000000000000000000815260040161051490610918565b60405180910390fd5b6005600081548092919061053090610af0565b919050555060405180606001604052806005548152602001828152602001600081525060046000600554815260200190815260200160002060008201518160000155602082015181600101908051906020019061058e9291906105e9565b506040820151816002015590505050565b60008054906101000a900473ffffffffffffffffffffffffffffffffffffffff1681565b60035481565b60026020528060005260406000206000915054906101000a900460ff1681565b8280546105f590610a8d565b90600052602060002090601f016020900481019282610617576000855561065e565b82601f1061063057805160ff191683800117855561065e565b8280016001018555821561065e579182015b8281111561065d578251825591602001919060010190610642565b5b50905061066b919061066f565b5090565b5b80821115610688576000816000905550600101610670565b5090565b600061069f61069a846109b6565b610991565b9050828152602081018484840111156106b757600080fd5b6106c2848285610a4b565b509392505050565b6000813590506106d981610c52565b92915050565b600082601f8301126106f057600080fd5b813561070084826020860161068c565b91505092915050565b60008135905061071881610c69565b92915050565b60006020828403121561073057600080fd5b600061073e848285016106ca565b91505092915050565b60006020828403121561075957600080fd5b600082013567ffffffffffffffff81111561077357600080fd5b61077f848285016106df565b91505092915050565b60006020828403121561079a57600080fd5b60006107a884828501610709565b91505092915050565b6107ba81610a03565b82525050565b6107c981610a15565b82525050565b60006107da826109e7565b6107e481856109f2565b93506107f4818560208601610a5a565b6107fd81610bc6565b840191505092915050565b60006108156020836109f2565b915061082082610bd7565b602082019050919050565b6000610838601a836109f2565b915061084382610c00565b602082019050919050565b600061085b601f836109f2565b915061086682610c29565b602082019050919050565b61087a81610a41565b82525050565b600060208201905061089560008301846107b1565b92915050565b60006020820190506108b060008301846107c0565b92915050565b600060208201905081810360008301526108d081846107cf565b905092915050565b600060208201905081810360008301526108f181610808565b9050919050565b600060208201905081810360008301526109118161082b565b9050919050565b600060208201905081810360008301526109318161084e565b9050919050565b600060208201905061094d6000830184610871565b92915050565b60006060820190506109686000830186610871565b818103602083015261097a81856107cf565b90506109896040830184610871565b949350505050565b600061099b6109ac565b90506109a78282610abf565b919050565b6000604051905090565b600067ffffffffffffffff8211156109d1576109d0610b97565b5b6109da82610bc6565b9050602081019050919050565b600081519050919050565b600082825260208201905092915050565b6000610a0e82610a21565b9050919050565b60008115159050919050565b600073ffffffffffffffffffffffffffffffffffffffff82169050919050565b6000819050919050565b82818337600083830152505050565b60005b83811015610a78578082015181840152602081019050610a5d565b83811115610a87576000848401525b50505050565b60006002820490506001821680610aa557607f821691505b60208210811415610ab957610ab8610b68565b5b50919050565b610ac882610bc6565b810181811067ffffffffffffffff82111715610ae757610ae6610b97565b5b80604052505050565b6000610afb82610a41565b91507fffffffffffffffffffffffffffffffffffffffffffffffffffffffffffffffff821415610b2e57610b2d610b39565b5b600182019050919050565b7f4e487b7100000000000000000000000000000000000000000000000000000000600052601160045260246000fd5b7f4e487b7100000000000000000000000000000000000000000000000000000000600052602260045260246000fd5b7f4e487b7100000000000000000000000000000000000000000000000000000000600052604160045260246000fd5b6000601f19601f8301169050919050565b7f4f6e6c7920766f7465206f6e206578697374696e672063616e64696461746573600082015250565b7f416464726573732063616e206f6e6c7920766f7465206f6e6365000000000000600082015250565b7f4f6e6c79206f776e65722063616e2073746f72652063616e6469646174657300600082015250565b610c5b81610a03565b8114610c6657600080fd5b50565b610c7281610a41565b8114610c7d57600080fd5b5056fea2646970667358221220cdf5cf50df074a9fe9853a7c045923a519ee8806fe4d39f15ced035ca12ee86a64736f6c63430008040033",
  "linkReferences": {},
  "deployedLinkReferences": {}
}