{
  "_format": "hh-sol-artifact-1",
  "contractName": "Election",
  "sourceName": "src/backend/contracts/Election.sol",
  "abi": [
    {
      "inputs": [
        {
          "internalType": "string",
          "name": "_name",
          "type": "string"
        }
      ],
      "stateMutability": "nonpayable",
      "type": "constructor"
    },
    {
      "anonymous": false,
      "inputs": [
        {
          "indexed": true,
          "internalType": "uint256",
          "name": "_candidateId",
          "type": "uint256"
        }
      ],
      "name": "votedEvent",
      "type": "event"
    },
    {
      "inputs": [
        {
          "internalType": "uint256",
          "name": "",
          "type": "uint256"
        }
      ],
      "name": "candidates",
      "outputs": [
        {
          "internalType": "uint256",
          "name": "id",
          "type": "uint256"
        },
        {
          "internalType": "string",
          "name": "name",
          "type": "string"
        },
        {
          "internalType": "uint256",
          "name": "voteCount",
          "type": "uint256"
        }
      ],
      "stateMutability": "view",
      "type": "function"
    },
    {
      "inputs": [],
      "name": "candidatesCount",
      "outputs": [
        {
          "internalType": "uint256",
          "name": "",
          "type": "uint256"
        }
      ],
      "stateMutability": "view",
      "type": "function"
    },
    {
      "inputs": [],
      "name": "name",
      "outputs": [
        {
          "internalType": "string",
          "name": "",
          "type": "string"
        }
      ],
      "stateMutability": "view",
      "type": "function"
    },
    {
      "inputs": [],
      "name": "owner",
      "outputs": [
        {
          "internalType": "address",
          "name": "",
          "type": "address"
        }
      ],
      "stateMutability": "view",
      "type": "function"
    },
    {
      "inputs": [
        {
          "internalType": "string",
          "name": "_name",
          "type": "string"
        }
      ],
      "name": "storeCandidate",
      "outputs": [],
      "stateMutability": "nonpayable",
      "type": "function"
    },
    {
      "inputs": [
        {
          "internalType": "uint256",
          "name": "_candidateId",
          "type": "uint256"
        }
      ],
      "name": "vote",
      "outputs": [],
      "stateMutability": "nonpayable",
      "type": "function"
    },
    {
      "inputs": [
        {
          "internalType": "address",
          "name": "",
          "type": "address"
        }
      ],
      "name": "voters",
      "outputs": [
        {
          "internalType": "bool",
          "name": "",
          "type": "bool"
        }
      ],
      "stateMutability": "view",
      "type": "function"
    }
  ],
  "bytecode": "0x60806040523480156200001157600080fd5b5060405162000ea938038062000ea98339818101604052810190620000379190620001b9565b336000806101000a81548173ffffffffffffffffffffffffffffffffffffffff021916908373ffffffffffffffffffffffffffffffffffffffff16021790555080600190805190602001906200008f92919062000097565b50506200036e565b828054620000a59062000293565b90600052602060002090601f016020900481019282620000c9576000855562000115565b82601f10620000e457805160ff191683800117855562000115565b8280016001018555821562000115579182015b8281111562000114578251825591602001919060010190620000f7565b5b50905062000124919062000128565b5090565b5b808211156200014357600081600090555060010162000129565b5090565b60006200015e620001588462000227565b620001fe565b9050828152602081018484840111156200017757600080fd5b620001848482856200025d565b509392505050565b600082601f8301126200019e57600080fd5b8151620001b084826020860162000147565b91505092915050565b600060208284031215620001cc57600080fd5b600082015167ffffffffffffffff811115620001e757600080fd5b620001f5848285016200018c565b91505092915050565b60006200020a6200021d565b9050620002188282620002c9565b919050565b6000604051905090565b600067ffffffffffffffff8211156200024557620002446200032e565b5b62000250826200035d565b9050602081019050919050565b60005b838110156200027d57808201518184015260208101905062000260565b838111156200028d576000848401525b50505050565b60006002820490506001821680620002ac57607f821691505b60208210811415620002c357620002c2620002ff565b5b50919050565b620002d4826200035d565b810181811067ffffffffffffffff82111715620002f657620002f56200032e565b5b80604052505050565b7f4e487b7100000000000000000000000000000000000000000000000000000000600052602260045260246000fd5b7f4e487b7100000000000000000000000000000000000000000000000000000000600052604160045260246000fd5b6000601f19601f8301169050919050565b610b2b806200037e6000396000f3fe608060405234801561001057600080fd5b506004361061007d5760003560e01c80633477ee2e1161005b5780633477ee2e146100da5780633ede9b671461010c5780638da5cb5b14610128578063a3ec138d146101465761007d565b80630121b93f1461008257806306fdde031461009e5780632d35a8a2146100bc575b600080fd5b61009c600480360381019061009791906106d5565b610176565b005b6100a661029c565b6040516100b391906107bd565b60405180910390f35b6100c461032a565b6040516100d191906107ff565b60405180910390f35b6100f460048036038101906100ef91906106d5565b610330565b6040516101039392919061081a565b60405180910390f35b61012660048036038101906101219190610694565b6103e2565b005b6101306104f2565b60405161013d9190610787565b60405180910390f35b610160600480360381019061015b919061066b565b610516565b60405161016d91906107a2565b60405180910390f35b600260003373ffffffffffffffffffffffffffffffffffffffff1673ffffffffffffffffffffffffffffffffffffffff16815260200190815260200160002060009054906101000a900460ff16156101cd57600080fd5b6000811180156101df57506004548111155b6101e857600080fd5b6001600260003373ffffffffffffffffffffffffffffffffffffffff1673ffffffffffffffffffffffffffffffffffffffff16815260200190815260200160002060006101000a81548160ff021916908315150217905550600360008281526020019081526020016000206002016000815480929190610267906109b7565b9190505550807ffff3c900d938d21d0990d786e819f29b8d05c1ef587b462b939609625b684b1660405160405180910390a250565b600180546102a990610954565b80601f01602080910402602001604051908101604052809291908181526020018280546102d590610954565b80156103225780601f106102f757610100808354040283529160200191610322565b820191906000526020600020905b81548152906001019060200180831161030557829003601f168201915b505050505081565b60045481565b600360205280600052604060002060009150905080600001549080600101805461035990610954565b80601f016020809104026020016040519081016040528092919081815260200182805461038590610954565b80156103d25780601f106103a7576101008083540402835291602001916103d2565b820191906000526020600020905b8154815290600101906020018083116103b557829003601f168201915b5050505050908060020154905083565b60008054906101000a900473ffffffffffffffffffffffffffffffffffffffff1673ffffffffffffffffffffffffffffffffffffffff163373ffffffffffffffffffffffffffffffffffffffff1614610470576040517f08c379a0000000000000000000000000000000000000000000000000000000008152600401610467906107df565b60405180910390fd5b60046000815480929190610483906109b7565b91905055506040518060600160405280600454815260200182815260200160008152506003600060045481526020019081526020016000206000820151816000015560208201518160010190805190602001906104e1929190610536565b506040820151816002015590505050565b60008054906101000a900473ffffffffffffffffffffffffffffffffffffffff1681565b60026020528060005260406000206000915054906101000a900460ff1681565b82805461054290610954565b90600052602060002090601f01602090048101928261056457600085556105ab565b82601f1061057d57805160ff19168380011785556105ab565b828001600101855582156105ab579182015b828111156105aa57825182559160200191906001019061058f565b5b5090506105b891906105bc565b5090565b5b808211156105d55760008160009055506001016105bd565b5090565b60006105ec6105e78461087d565b610858565b90508281526020810184848401111561060457600080fd5b61060f848285610912565b509392505050565b60008135905061062681610ac7565b92915050565b600082601f83011261063d57600080fd5b813561064d8482602086016105d9565b91505092915050565b60008135905061066581610ade565b92915050565b60006020828403121561067d57600080fd5b600061068b84828501610617565b91505092915050565b6000602082840312156106a657600080fd5b600082013567ffffffffffffffff8111156106c057600080fd5b6106cc8482850161062c565b91505092915050565b6000602082840312156106e757600080fd5b60006106f584828501610656565b91505092915050565b610707816108ca565b82525050565b610716816108dc565b82525050565b6000610727826108ae565b61073181856108b9565b9350610741818560208601610921565b61074a81610a8d565b840191505092915050565b6000610762601f836108b9565b915061076d82610a9e565b602082019050919050565b61078181610908565b82525050565b600060208201905061079c60008301846106fe565b92915050565b60006020820190506107b7600083018461070d565b92915050565b600060208201905081810360008301526107d7818461071c565b905092915050565b600060208201905081810360008301526107f881610755565b9050919050565b60006020820190506108146000830184610778565b92915050565b600060608201905061082f6000830186610778565b8181036020830152610841818561071c565b90506108506040830184610778565b949350505050565b6000610862610873565b905061086e8282610986565b919050565b6000604051905090565b600067ffffffffffffffff82111561089857610897610a5e565b5b6108a182610a8d565b9050602081019050919050565b600081519050919050565b600082825260208201905092915050565b60006108d5826108e8565b9050919050565b60008115159050919050565b600073ffffffffffffffffffffffffffffffffffffffff82169050919050565b6000819050919050565b82818337600083830152505050565b60005b8381101561093f578082015181840152602081019050610924565b8381111561094e576000848401525b50505050565b6000600282049050600182168061096c57607f821691505b602082108114156109805761097f610a2f565b5b50919050565b61098f82610a8d565b810181811067ffffffffffffffff821117156109ae576109ad610a5e565b5b80604052505050565b60006109c282610908565b91507fffffffffffffffffffffffffffffffffffffffffffffffffffffffffffffffff8214156109f5576109f4610a00565b5b600182019050919050565b7f4e487b7100000000000000000000000000000000000000000000000000000000600052601160045260246000fd5b7f4e487b7100000000000000000000000000000000000000000000000000000000600052602260045260246000fd5b7f4e487b7100000000000000000000000000000000000000000000000000000000600052604160045260246000fd5b6000601f19601f8301169050919050565b7f4f6e6c79206f776e65722063616e2073746f72652063616e6469646174657300600082015250565b610ad0816108ca565b8114610adb57600080fd5b50565b610ae781610908565b8114610af257600080fd5b5056fea26469706673582212205d2815971c86d91fa1cad93066578ba8e4d65a74e4fcb90365d6ef1bee6da84364736f6c63430008040033",
  "linkReferences": {},
  "deployedLinkReferences": {}
}